{"abi":[{"type":"constructor","inputs":[{"name":"_stakingToken","type":"address","internalType":"address"},{"name":"_callbackAuthorizer","type":"address","internalType":"address"},{"name":"_minimumStake","type":"uint256","internalType":"uint256"},{"name":"_votingDuration","type":"uint256","internalType":"uint256"},{"name":"_penaltyPercentage","type":"uint256","internalType":"uint256"},{"name":"_treasury","type":"address","internalType":"address"},{"name":"_finalizationFeePercentage","type":"uint256","internalType":"uint256"}],"stateMutability":"nonpayable"},{"type":"receive","stateMutability":"payable"},{"type":"function","name":"DEFAULT_ADMIN_ROLE","inputs":[],"outputs":[{"name":"","type":"bytes32","internalType":"bytes32"}],"stateMutability":"view"},{"type":"function","name":"GOVERNANCE_ROLE","inputs":[],"outputs":[{"name":"","type":"bytes32","internalType":"bytes32"}],"stateMutability":"view"},{"type":"function","name":"PARAMETER_ADMIN_ROLE","inputs":[],"outputs":[{"name":"","type":"bytes32","internalType":"bytes32"}],"stateMutability":"view"},{"type":"function","name":"TREASURY_ROLE","inputs":[],"outputs":[{"name":"","type":"bytes32","internalType":"bytes32"}],"stateMutability":"view"},{"type":"function","name":"activeVotingCount","inputs":[],"outputs":[{"name":"","type":"uint256","internalType":"uint256"}],"stateMutability":"view"},{"type":"function","name":"activeVotingIds","inputs":[{"name":"","type":"uint256","internalType":"uint256"}],"outputs":[{"name":"","type":"uint256","internalType":"uint256"}],"stateMutability":"view"},{"type":"function","name":"addressVerdicts","inputs":[{"name":"","type":"address","internalType":"address"}],"outputs":[{"name":"hasVerdict","type":"bool","internalType":"bool"},{"name":"isSuspicious","type":"bool","internalType":"bool"},{"name":"lastVotingId","type":"uint256","internalType":"uint256"},{"name":"verdictTimestamp","type":"uint256","internalType":"uint256"},{"name":"totalIncidents","type":"uint256","internalType":"uint256"}],"stateMutability":"view"},{"type":"function","name":"addressVotingHistory","inputs":[{"name":"","type":"address","internalType":"address"},{"name":"","type":"uint256","internalType":"uint256"}],"outputs":[{"name":"","type":"uint256","internalType":"uint256"}],"stateMutability":"view"},{"type":"function","name":"addressVotingHistoryLength","inputs":[{"name":"suspiciousAddress","type":"address","internalType":"address"}],"outputs":[{"name":"","type":"uint256","internalType":"uint256"}],"stateMutability":"view"},{"type":"function","name":"callbackAuthorizer","inputs":[],"outputs":[{"name":"","type":"address","internalType":"address"}],"stateMutability":"view"},{"type":"function","name":"castVote","inputs":[{"name":"votingId","type":"uint256","internalType":"uint256"},{"name":"voteSuspicious","type":"bool","internalType":"bool"}],"outputs":[],"stateMutability":"nonpayable"},{"type":"function","name":"clearAddressVerdict","inputs":[{"name":"suspiciousAddress","type":"address","internalType":"address"}],"outputs":[],"stateMutability":"nonpayable"},{"type":"function","name":"coverDebt","inputs":[],"outputs":[],"stateMutability":"nonpayable"},{"type":"function","name":"finalizationFeePercentage","inputs":[],"outputs":[{"name":"","type":"uint256","internalType":"uint256"}],"stateMutability":"view"},{"type":"function","name":"finalizationRewardPercentage","inputs":[],"outputs":[{"name":"","type":"uint256","internalType":"uint256"}],"stateMutability":"view"},{"type":"function","name":"finalizeVoting","inputs":[{"name":"votingId","type":"uint256","internalType":"uint256"}],"outputs":[],"stateMutability":"nonpayable"},{"type":"function","name":"getRoleAdmin","inputs":[{"name":"role","type":"bytes32","internalType":"bytes32"}],"outputs":[{"name":"","type":"bytes32","internalType":"bytes32"}],"stateMutability":"view"},{"type":"function","name":"grantRole","inputs":[{"name":"role","type":"bytes32","internalType":"bytes32"},{"name":"account","type":"address","internalType":"address"}],"outputs":[],"stateMutability":"nonpayable"},{"type":"function","name":"hasRole","inputs":[{"name":"role","type":"bytes32","internalType":"bytes32"},{"name":"account","type":"address","internalType":"address"}],"outputs":[{"name":"","type":"bool","internalType":"bool"}],"stateMutability":"view"},{"type":"function","name":"karmaPenalty","inputs":[],"outputs":[{"name":"","type":"uint256","internalType":"uint256"}],"stateMutability":"view"},{"type":"function","name":"karmaReward","inputs":[],"outputs":[{"name":"","type":"uint256","internalType":"uint256"}],"stateMutability":"view"},{"type":"function","name":"minimumKarmaToVote","inputs":[],"outputs":[{"name":"","type":"int256","internalType":"int256"}],"stateMutability":"view"},{"type":"function","name":"minimumStake","inputs":[],"outputs":[{"name":"","type":"uint256","internalType":"uint256"}],"stateMutability":"view"},{"type":"function","name":"minimumTotalVotingPower","inputs":[],"outputs":[{"name":"","type":"uint256","internalType":"uint256"}],"stateMutability":"view"},{"type":"function","name":"minimumVoters","inputs":[],"outputs":[{"name":"","type":"uint256","internalType":"uint256"}],"stateMutability":"view"},{"type":"function","name":"pay","inputs":[{"name":"amount","type":"uint256","internalType":"uint256"}],"outputs":[],"stateMutability":"nonpayable"},{"type":"function","name":"penaltyPercentage","inputs":[],"outputs":[{"name":"","type":"uint256","internalType":"uint256"}],"stateMutability":"view"},{"type":"function","name":"renounceRole","inputs":[{"name":"role","type":"bytes32","internalType":"bytes32"},{"name":"account","type":"address","internalType":"address"}],"outputs":[],"stateMutability":"nonpayable"},{"type":"function","name":"revokeRole","inputs":[{"name":"role","type":"bytes32","internalType":"bytes32"},{"name":"account","type":"address","internalType":"address"}],"outputs":[],"stateMutability":"nonpayable"},{"type":"function","name":"setCallbackAuthorizer","inputs":[{"name":"newAuthorizer","type":"address","internalType":"address"}],"outputs":[],"stateMutability":"nonpayable"},{"type":"function","name":"setFinalizationFeePercentage","inputs":[{"name":"newFeePercentage","type":"uint256","internalType":"uint256"}],"outputs":[],"stateMutability":"nonpayable"},{"type":"function","name":"setFinalizationRewardPercentage","inputs":[{"name":"newPercentage","type":"uint256","internalType":"uint256"}],"outputs":[],"stateMutability":"nonpayable"},{"type":"function","name":"setKarmaPenalty","inputs":[{"name":"newPenalty","type":"uint256","internalType":"uint256"}],"outputs":[],"stateMutability":"nonpayable"},{"type":"function","name":"setKarmaReward","inputs":[{"name":"newReward","type":"uint256","internalType":"uint256"}],"outputs":[],"stateMutability":"nonpayable"},{"type":"function","name":"setMinimumKarmaToVote","inputs":[{"name":"newMinimumKarma","type":"int256","internalType":"int256"}],"outputs":[],"stateMutability":"nonpayable"},{"type":"function","name":"setMinimumStake","inputs":[{"name":"newMinimum","type":"uint256","internalType":"uint256"}],"outputs":[],"stateMutability":"nonpayable"},{"type":"function","name":"setMinimumTotalVotingPower","inputs":[{"name":"newMinimumPower","type":"uint256","internalType":"uint256"}],"outputs":[],"stateMutability":"nonpayable"},{"type":"function","name":"setMinimumVoters","inputs":[{"name":"newMinimumVoters","type":"uint256","internalType":"uint256"}],"outputs":[],"stateMutability":"nonpayable"},{"type":"function","name":"setPenaltyPercentage","inputs":[{"name":"newPercentage","type":"uint256","internalType":"uint256"}],"outputs":[],"stateMutability":"nonpayable"},{"type":"function","name":"setTreasury","inputs":[{"name":"newTreasury","type":"address","internalType":"address"}],"outputs":[],"stateMutability":"nonpayable"},{"type":"function","name":"setVotingDuration","inputs":[{"name":"newDuration","type":"uint256","internalType":"uint256"}],"outputs":[],"stateMutability":"nonpayable"},{"type":"function","name":"stake","inputs":[{"name":"amount","type":"uint256","internalType":"uint256"}],"outputs":[],"stateMutability":"nonpayable"},{"type":"function","name":"stakers","inputs":[{"name":"","type":"address","internalType":"address"}],"outputs":[{"name":"stakedAmount","type":"uint256","internalType":"uint256"},{"name":"karmaPoints","type":"int256","internalType":"int256"},{"name":"totalVotes","type":"uint256","internalType":"uint256"},{"name":"correctVotes","type":"uint256","internalType":"uint256"},{"name":"lockedAmount","type":"uint256","internalType":"uint256"}],"stateMutability":"view"},{"type":"function","name":"stakingToken","inputs":[],"outputs":[{"name":"","type":"address","internalType":"contract IERC20"}],"stateMutability":"view"},{"type":"function","name":"supportsInterface","inputs":[{"name":"interfaceId","type":"bytes4","internalType":"bytes4"}],"outputs":[{"name":"","type":"bool","internalType":"bool"}],"stateMutability":"view"},{"type":"function","name":"tagSuspicious","inputs":[{"name":"suspiciousAddress","type":"address","internalType":"address"},{"name":"originChainId","type":"uint256","internalType":"uint256"},{"name":"originContract","type":"address","internalType":"address"},{"name":"value","type":"uint256","internalType":"uint256"},{"name":"decimals","type":"uint256","internalType":"uint256"},{"name":"txHash","type":"uint256","internalType":"uint256"},{"name":"detectorId","type":"bytes32","internalType":"bytes32"}],"outputs":[{"name":"votingId","type":"uint256","internalType":"uint256"}],"stateMutability":"nonpayable"},{"type":"function","name":"totalFeesCollected","inputs":[],"outputs":[{"name":"","type":"uint256","internalType":"uint256"}],"stateMutability":"view"},{"type":"function","name":"transferFeesToTreasury","inputs":[{"name":"amount","type":"uint256","internalType":"uint256"}],"outputs":[],"stateMutability":"nonpayable"},{"type":"function","name":"treasury","inputs":[],"outputs":[{"name":"","type":"address","internalType":"address"}],"stateMutability":"view"},{"type":"function","name":"unstake","inputs":[{"name":"amount","type":"uint256","internalType":"uint256"}],"outputs":[],"stateMutability":"nonpayable"},{"type":"function","name":"voteInfo","inputs":[{"name":"votingId","type":"uint256","internalType":"uint256"},{"name":"voter","type":"address","internalType":"address"}],"outputs":[{"name":"hasVoted","type":"bool","internalType":"bool"},{"name":"votedFor","type":"bool","internalType":"bool"},{"name":"votingPower","type":"uint256","internalType":"uint256"},{"name":"stakedSnapshot","type":"uint256","internalType":"uint256"}],"stateMutability":"view"},{"type":"function","name":"votingDuration","inputs":[],"outputs":[{"name":"","type":"uint256","internalType":"uint256"}],"stateMutability":"view"},{"type":"function","name":"votingVoterAt","inputs":[{"name":"votingId","type":"uint256","internalType":"uint256"},{"name":"index","type":"uint256","internalType":"uint256"}],"outputs":[{"name":"","type":"address","internalType":"address"}],"stateMutability":"view"},{"type":"function","name":"votingVotersLength","inputs":[{"name":"votingId","type":"uint256","internalType":"uint256"}],"outputs":[{"name":"","type":"uint256","internalType":"uint256"}],"stateMutability":"view"},{"type":"function","name":"votings","inputs":[{"name":"","type":"uint256","internalType":"uint256"}],"outputs":[{"name":"votingId","type":"uint256","internalType":"uint256"},{"name":"report","type":"tuple","internalType":"struct VedyxTypes.SuspiciousReport","components":[{"name":"suspiciousAddress","type":"address","internalType":"address"},{"name":"originChainId","type":"uint256","internalType":"uint256"},{"name":"originContract","type":"address","internalType":"address"},{"name":"value","type":"uint256","internalType":"uint256"},{"name":"decimals","type":"uint256","internalType":"uint256"},{"name":"txHash","type":"uint256","internalType":"uint256"},{"name":"detectorId","type":"bytes32","internalType":"bytes32"}]},{"name":"startTime","type":"uint256","internalType":"uint256"},{"name":"endTime","type":"uint256","internalType":"uint256"},{"name":"votesFor","type":"uint256","internalType":"uint256"},{"name":"votesAgainst","type":"uint256","internalType":"uint256"},{"name":"totalVotingPower","type":"uint256","internalType":"uint256"},{"name":"finalized","type":"bool","internalType":"bool"},{"name":"isSuspicious","type":"bool","internalType":"bool"},{"name":"isInconclusive","type":"bool","internalType":"bool"}],"stateMutability":"view"},{"type":"event","name":"AddressAutoMarkedSuspicious","inputs":[{"name":"suspiciousAddress","type":"address","indexed":true,"internalType":"address"},{"name":"incidentNumber","type":"uint256","indexed":true,"internalType":"uint256"},{"name":"previousVotingId","type":"uint256","indexed":false,"internalType":"uint256"},{"name":"txHash","type":"uint256","indexed":false,"internalType":"uint256"},{"name":"detectorId","type":"bytes32","indexed":true,"internalType":"bytes32"}],"anonymous":false},{"type":"event","name":"CallbackAuthorizerUpdated","inputs":[{"name":"newAuthorizer","type":"address","indexed":true,"internalType":"address"}],"anonymous":false},{"type":"event","name":"FeeCollected","inputs":[{"name":"staker","type":"address","indexed":true,"internalType":"address"},{"name":"feeAmount","type":"uint256","indexed":false,"internalType":"uint256"}],"anonymous":false},{"type":"event","name":"FinalizationFeeUpdated","inputs":[{"name":"newFeePercentage","type":"uint256","indexed":false,"internalType":"uint256"}],"anonymous":false},{"type":"event","name":"FinalizationRewardPaid","inputs":[{"name":"votingId","type":"uint256","indexed":true,"internalType":"uint256"},{"name":"finalizer","type":"address","indexed":true,"internalType":"address"},{"name":"rewardAmount","type":"uint256","indexed":false,"internalType":"uint256"}],"anonymous":false},{"type":"event","name":"FinalizationRewardPercentageUpdated","inputs":[{"name":"newPercentage","type":"uint256","indexed":false,"internalType":"uint256"}],"anonymous":false},{"type":"event","name":"KarmaUpdated","inputs":[{"name":"voter","type":"address","indexed":true,"internalType":"address"},{"name":"karmaChange","type":"int256","indexed":false,"internalType":"int256"},{"name":"newKarma","type":"int256","indexed":false,"internalType":"int256"}],"anonymous":false},{"type":"event","name":"MinimumKarmaToVoteUpdated","inputs":[{"name":"newMinimumKarma","type":"int256","indexed":false,"internalType":"int256"}],"anonymous":false},{"type":"event","name":"MinimumStakeUpdated","inputs":[{"name":"newMinimum","type":"uint256","indexed":false,"internalType":"uint256"}],"anonymous":false},{"type":"event","name":"MinimumTotalVotingPowerUpdated","inputs":[{"name":"newMinimumPower","type":"uint256","indexed":false,"internalType":"uint256"}],"anonymous":false},{"type":"event","name":"MinimumVotersUpdated","inputs":[{"name":"newMinimumVoters","type":"uint256","indexed":false,"internalType":"uint256"}],"anonymous":false},{"type":"event","name":"PenaltyApplied","inputs":[{"name":"voter","type":"address","indexed":true,"internalType":"address"},{"name":"votingId","type":"uint256","indexed":true,"internalType":"uint256"},{"name":"penaltyAmount","type":"uint256","indexed":false,"internalType":"uint256"}],"anonymous":false},{"type":"event","name":"PenaltyPercentageUpdated","inputs":[{"name":"newPercentage","type":"uint256","indexed":false,"internalType":"uint256"}],"anonymous":false},{"type":"event","name":"RoleAdminChanged","inputs":[{"name":"role","type":"bytes32","indexed":true,"internalType":"bytes32"},{"name":"previousAdminRole","type":"bytes32","indexed":true,"internalType":"bytes32"},{"name":"newAdminRole","type":"bytes32","indexed":true,"internalType":"bytes32"}],"anonymous":false},{"type":"event","name":"RoleGranted","inputs":[{"name":"role","type":"bytes32","indexed":true,"internalType":"bytes32"},{"name":"account","type":"address","indexed":true,"internalType":"address"},{"name":"sender","type":"address","indexed":true,"internalType":"address"}],"anonymous":false},{"type":"event","name":"RoleRevoked","inputs":[{"name":"role","type":"bytes32","indexed":true,"internalType":"bytes32"},{"name":"account","type":"address","indexed":true,"internalType":"address"},{"name":"sender","type":"address","indexed":true,"internalType":"address"}],"anonymous":false},{"type":"event","name":"Staked","inputs":[{"name":"staker","type":"address","indexed":true,"internalType":"address"},{"name":"amount","type":"uint256","indexed":false,"internalType":"uint256"}],"anonymous":false},{"type":"event","name":"TreasuryUpdated","inputs":[{"name":"newTreasury","type":"address","indexed":true,"internalType":"address"}],"anonymous":false},{"type":"event","name":"Unstaked","inputs":[{"name":"staker","type":"address","indexed":true,"internalType":"address"},{"name":"amount","type":"uint256","indexed":false,"internalType":"uint256"}],"anonymous":false},{"type":"event","name":"VerdictCleared","inputs":[{"name":"suspiciousAddress","type":"address","indexed":true,"internalType":"address"},{"name":"clearedBy","type":"address","indexed":true,"internalType":"address"}],"anonymous":false},{"type":"event","name":"VerdictRecorded","inputs":[{"name":"suspiciousAddress","type":"address","indexed":true,"internalType":"address"},{"name":"votingId","type":"uint256","indexed":true,"internalType":"uint256"},{"name":"isSuspicious","type":"bool","indexed":false,"internalType":"bool"},{"name":"timestamp","type":"uint256","indexed":false,"internalType":"uint256"}],"anonymous":false},{"type":"event","name":"VoteCast","inputs":[{"name":"votingId","type":"uint256","indexed":true,"internalType":"uint256"},{"name":"voter","type":"address","indexed":true,"internalType":"address"},{"name":"votedFor","type":"bool","indexed":false,"internalType":"bool"},{"name":"votingPower","type":"uint256","indexed":false,"internalType":"uint256"}],"anonymous":false},{"type":"event","name":"VoterRewarded","inputs":[{"name":"voter","type":"address","indexed":true,"internalType":"address"},{"name":"votingId","type":"uint256","indexed":true,"internalType":"uint256"},{"name":"rewardAmount","type":"uint256","indexed":false,"internalType":"uint256"}],"anonymous":false},{"type":"event","name":"VotingDurationUpdated","inputs":[{"name":"newDuration","type":"uint256","indexed":false,"internalType":"uint256"}],"anonymous":false},{"type":"event","name":"VotingFinalized","inputs":[{"name":"votingId","type":"uint256","indexed":true,"internalType":"uint256"},{"name":"suspiciousAddress","type":"address","indexed":true,"internalType":"address"},{"name":"isSuspicious","type":"bool","indexed":false,"internalType":"bool"},{"name":"votesFor","type":"uint256","indexed":false,"internalType":"uint256"},{"name":"votesAgainst","type":"uint256","indexed":false,"internalType":"uint256"}],"anonymous":false},{"type":"event","name":"VotingInconclusive","inputs":[{"name":"votingId","type":"uint256","indexed":true,"internalType":"uint256"},{"name":"suspiciousAddress","type":"address","indexed":true,"internalType":"address"},{"name":"voterCount","type":"uint256","indexed":false,"internalType":"uint256"},{"name":"totalVotingPower","type":"uint256","indexed":false,"internalType":"uint256"}],"anonymous":false},{"type":"event","name":"VotingStarted","inputs":[{"name":"votingId","type":"uint256","indexed":true,"internalType":"uint256"},{"name":"suspiciousAddress","type":"address","indexed":true,"internalType":"address"},{"name":"endTime","type":"uint256","indexed":false,"internalType":"uint256"},{"name":"detectorId","type":"bytes32","indexed":true,"internalType":"bytes32"}],"anonymous":false},{"type":"error","name":"AlreadyVoted","inputs":[]},{"type":"error","name":"CannotUnstakeWhenVotingIsActive","inputs":[]},{"type":"error","name":"CannotVoteOnOwnAddress","inputs":[]},{"type":"error","name":"InsufficientKarma","inputs":[]},{"type":"error","name":"InsufficientStake","inputs":[]},{"type":"error","name":"InsufficientVotingPower","inputs":[]},{"type":"error","name":"InvalidAddress","inputs":[]},{"type":"error","name":"InvalidAmount","inputs":[]},{"type":"error","name":"InvalidFeePercentage","inputs":[]},{"type":"error","name":"InvalidQuorumValue","inputs":[]},{"type":"error","name":"InvalidTreasury","inputs":[]},{"type":"error","name":"InvalidVotingId","inputs":[]},{"type":"error","name":"NoVerdictToClear","inputs":[]},{"type":"error","name":"UnauthorizedCallback","inputs":[]},{"type":"error","name":"VotingAlreadyEnded","inputs":[]},{"type":"error","name":"VotingStillActive","inputs":[]}],"bytecode":{"object":"0x60a060405234801561000f575f5ffd5b50604051615d51380380615d5183398181016040528101906100319190610615565b8560015f819055503360045f6101000a81548173ffffffffffffffffffffffffffffffffffffffff021916908373ffffffffffffffffffffffffffffffffffffffff1602179055508060025f6101000a81548173ffffffffffffffffffffffffffffffffffffffff021916908373ffffffffffffffffffffffffffffffffffffffff1602179055506100c8816103db60201b60201c565b505f73ffffffffffffffffffffffffffffffffffffffff168773ffffffffffffffffffffffffffffffffffffffff16148061012e57505f73ffffffffffffffffffffffffffffffffffffffff168673ffffffffffffffffffffffffffffffffffffffff16145b15610165576040517fe6c4247b00000000000000000000000000000000000000000000000000000000815260040160405180910390fd5b5f73ffffffffffffffffffffffffffffffffffffffff168273ffffffffffffffffffffffffffffffffffffffff16036101ca576040517f14bcf5c800000000000000000000000000000000000000000000000000000000815260040160405180910390fd5b6103e8811115610206576040517f721dbfea00000000000000000000000000000000000000000000000000000000815260040160405180910390fd5b8673ffffffffffffffffffffffffffffffffffffffff1660808173ffffffffffffffffffffffffffffffffffffffff16815250508560055f6101000a81548173ffffffffffffffffffffffffffffffffffffffff021916908373ffffffffffffffffffffffffffffffffffffffff16021790555084600681905550836007819055508260088190555081600c5f6101000a81548173ffffffffffffffffffffffffffffffffffffffff021916908373ffffffffffffffffffffffffffffffffffffffff16021790555080600b8190555060c8600e81905550600a6009819055506005600a819055507fffffffffffffffffffffffffffffffffffffffffffffffffffffffffffffffce600f819055506003601081905550683635c9adc5dea0000060118190555061033f5f5f1b3361043360201b60201c565b61036f7f71840dc4906352362b0cdaf79870196c8e42acafade72d5d5a6d59291253ceb13361043360201b60201c565b61039f7f896f2fe212e7ed9631b6dfe8fc24cd35f4d47b9e9a854d5b0eb08db6295a922c3361043360201b60201c565b6103cf7fe1dcbdb91df27212a29bc27177c840cf2f819ecf2187432e1fac86c2dd5dfca93361043360201b60201c565b505050505050506106b2565b600160035f8373ffffffffffffffffffffffffffffffffffffffff1673ffffffffffffffffffffffffffffffffffffffff1681526020019081526020015f205f6101000a81548160ff02191690831515021790555050565b610443828261051960201b60201c565b610515576001805f8481526020019081526020015f205f015f8373ffffffffffffffffffffffffffffffffffffffff1673ffffffffffffffffffffffffffffffffffffffff1681526020019081526020015f205f6101000a81548160ff0219169083151502179055506104ba61057d60201b60201c565b73ffffffffffffffffffffffffffffffffffffffff168173ffffffffffffffffffffffffffffffffffffffff16837f2f8788117e7eff1d82e926ec794901d17c78024a50270940304540a733656f0d60405160405180910390a45b5050565b5f60015f8481526020019081526020015f205f015f8373ffffffffffffffffffffffffffffffffffffffff1673ffffffffffffffffffffffffffffffffffffffff1681526020019081526020015f205f9054906101000a900460ff16905092915050565b5f33905090565b5f5ffd5b5f73ffffffffffffffffffffffffffffffffffffffff82169050919050565b5f6105b182610588565b9050919050565b6105c1816105a7565b81146105cb575f5ffd5b50565b5f815190506105dc816105b8565b92915050565b5f819050919050565b6105f4816105e2565b81146105fe575f5ffd5b50565b5f8151905061060f816105eb565b92915050565b5f5f5f5f5f5f5f60e0888a0312156106305761062f610584565b5b5f61063d8a828b016105ce565b975050602061064e8a828b016105ce565b965050604061065f8a828b01610601565b95505060606106708a828b01610601565b94505060806106818a828b01610601565b93505060a06106928a828b016105ce565b92505060c06106a38a828b01610601565b91505092959891949750929550565b60805161566b6106e65f395f81816116fa01528181611d7b0152818161202e015281816123a4015261309f015261566b5ff3fe608060405260043610610353575f3560e01c806384cf71db116101c5578063c7ffdde6116100f6578063e13050e711610094578063f0f442601161006e578063f0f4426014610c6a578063f2cb42c714610c92578063f36c8f5c14610cce578063f5093ac814610cf85761035a565b8063e13050e714610bdc578063ec5ffac214610c04578063efaa642414610c2e5761035a565b8063d40a8fab116100d0578063d40a8fab14610b26578063d547741f14610b62578063def0de0d14610b8a578063e00e3ecd14610bb45761035a565b8063c7ffdde614610aac578063ca699dc814610ad4578063d11a57ec14610afc5761035a565b8063a8b25cb011610163578063b626de1b1161013d578063b626de1b14610a0a578063b67f3c7914610a34578063c290d69114610a5c578063c4893c9714610a845761035a565b8063a8b25cb01461097c578063aacc7b36146109b8578063b4d9bc00146109e05761035a565b806399a219561161019f57806399a21956146108a5578063a217fddf146108e5578063a598d03c1461090f578063a694fc3a146109545761035a565b806384cf71db146107ff5780639168ae721461082957806391d14854146108695761035a565b80632dd5879c1161029f57806355b7bb861161023d57806361d027b31161021757806361d027b31461076d57806372a098001461079757806372f702f3146107bf5780637a90b990146107e95761035a565b806355b7bb86146106f35780635bcfadb51461071b57806360c6d8ae146107435761035a565b806336568abe1161027957806336568abe1461064f57806341c7bfc81461067757806349444831146106a15780634994a222146106c95761035a565b80632dd5879c146105d75780632e17de78146105ff5780632f2ff15d146106275761035a565b80631d688bc11161030c578063233e9903116102e6578063233e99031461050d578063248a9ca31461053557806324afe055146105715780632763d8501461059b5761035a565b80631d688bc11461047f5780631e9c7bd2146104a757806321788047146104d15761035a565b806301ffc9a71461035e5780630d7505591461039a578063132002fc146103c457806315373e3d146103ee57806315908d511461041657806318f3e763146104405761035a565b3661035a57005b5f5ffd5b348015610369575f5ffd5b50610384600480360381019061037f919061464e565b610d22565b6040516103919190614693565b60405180910390f35b3480156103a5575f5ffd5b506103ae610d9b565b6040516103bb91906146eb565b60405180910390f35b3480156103cf575f5ffd5b506103d8610dc0565b6040516103e5919061471c565b60405180910390f35b3480156103f9575f5ffd5b50610414600480360381019061040f9190614789565b610dc6565b005b348015610421575f5ffd5b5061042a611318565b604051610437919061471c565b60405180910390f35b34801561044b575f5ffd5b50610466600480360381019061046191906147f1565b61131e565b604051610476949392919061482f565b60405180910390f35b34801561048a575f5ffd5b506104a560048036038101906104a09190614872565b6113b1565b005b3480156104b2575f5ffd5b506104bb611494565b6040516104c8919061471c565b60405180910390f35b3480156104dc575f5ffd5b506104f760048036038101906104f29190614872565b61149a565b604051610504919061471c565b60405180910390f35b348015610518575f5ffd5b50610533600480360381019061052e9190614872565b6114ba565b005b348015610540575f5ffd5b5061055b600480360381019061055691906148d0565b611526565b604051610568919061490a565b60405180910390f35b34801561057c575f5ffd5b50610585611543565b604051610592919061471c565b60405180910390f35b3480156105a6575f5ffd5b506105c160048036038101906105bc9190614872565b611549565b6040516105ce919061471c565b60405180910390f35b3480156105e2575f5ffd5b506105fd60048036038101906105f89190614872565b611569565b005b34801561060a575f5ffd5b5061062560048036038101906106209190614872565b61159e565b005b348015610632575f5ffd5b5061064d60048036038101906106489190614923565b6117ef565b005b34801561065a575f5ffd5b5061067560048036038101906106709190614923565b611810565b005b348015610682575f5ffd5b5061068b611893565b604051610698919061471c565b60405180910390f35b3480156106ac575f5ffd5b506106c760048036038101906106c29190614872565b611899565b005b3480156106d4575f5ffd5b506106dd611e78565b6040516106ea919061471c565b60405180910390f35b3480156106fe575f5ffd5b5061071960048036038101906107149190614994565b611e84565b005b348015610726575f5ffd5b50610741600480360381019061073c9190614872565b611ef0565b005b34801561074e575f5ffd5b50610757611f5c565b604051610764919061471c565b60405180910390f35b348015610778575f5ffd5b50610781611f62565b60405161078e91906146eb565b60405180910390f35b3480156107a2575f5ffd5b506107bd60048036038101906107b89190614872565b611f87565b005b3480156107ca575f5ffd5b506107d361202c565b6040516107e09190614a1a565b60405180910390f35b3480156107f4575f5ffd5b506107fd612050565b005b34801561080a575f5ffd5b5061081361211a565b604051610820919061471c565b60405180910390f35b348015610834575f5ffd5b5061084f600480360381019061084a9190614a33565b612120565b604051610860959493929190614a6d565b60405180910390f35b348015610874575f5ffd5b5061088f600480360381019061088a9190614923565b612152565b60405161089c9190614693565b60405180910390f35b3480156108b0575f5ffd5b506108cb60048036038101906108c69190614a33565b6121b6565b6040516108dc959493929190614abe565b60405180910390f35b3480156108f0575f5ffd5b506108f9612200565b604051610906919061490a565b60405180910390f35b34801561091a575f5ffd5b5061093560048036038101906109309190614872565b612206565b60405161094b9a99989796959493929190614bc8565b60405180910390f35b34801561095f575f5ffd5b5061097a60048036038101906109759190614872565b612361565b005b348015610987575f5ffd5b506109a2600480360381019061099d9190614c68565b6124ee565b6040516109af919061471c565b60405180910390f35b3480156109c3575f5ffd5b506109de60048036038101906109d99190614872565b6129f1565b005b3480156109eb575f5ffd5b506109f4612a26565b604051610a019190614d05565b60405180910390f35b348015610a15575f5ffd5b50610a1e612a2c565b604051610a2b919061490a565b60405180910390f35b348015610a3f575f5ffd5b50610a5a6004803603810190610a559190614872565b612a50565b005b348015610a67575f5ffd5b50610a826004803603810190610a7d9190614872565b612af5565b005b348015610a8f575f5ffd5b50610aaa6004803603810190610aa59190614a33565b612b8b565b005b348015610ab7575f5ffd5b50610ad26004803603810190610acd9190614872565b612ca1565b005b348015610adf575f5ffd5b50610afa6004803603810190610af59190614a33565b612d84565b005b348015610b07575f5ffd5b50610b10612ec8565b604051610b1d919061490a565b60405180910390f35b348015610b31575f5ffd5b50610b4c6004803603810190610b479190614d1e565b612eec565b604051610b59919061471c565b60405180910390f35b348015610b6d575f5ffd5b50610b886004803603810190610b839190614923565b612f17565b005b348015610b95575f5ffd5b50610b9e612f38565b604051610bab919061471c565b60405180910390f35b348015610bbf575f5ffd5b50610bda6004803603810190610bd59190614872565b612f3e565b005b348015610be7575f5ffd5b50610c026004803603810190610bfd9190614872565b612fe6565b005b348015610c0f575f5ffd5b50610c186131cd565b604051610c25919061471c565b60405180910390f35b348015610c39575f5ffd5b50610c546004803603810190610c4f9190614d5c565b6131d3565b604051610c6191906146eb565b60405180910390f35b348015610c75575f5ffd5b50610c906004803603810190610c8b9190614a33565b61322a565b005b348015610c9d575f5ffd5b50610cb86004803603810190610cb39190614a33565b613340565b604051610cc5919061471c565b60405180910390f35b348015610cd9575f5ffd5b50610ce2613389565b604051610cef919061490a565b60405180910390f35b348015610d03575f5ffd5b50610d0c6133ad565b604051610d19919061471c565b60405180910390f35b5f7f7965db0b000000000000000000000000000000000000000000000000000000007bffffffffffffffffffffffffffffffffffffffffffffffffffffffff1916827bffffffffffffffffffffffffffffffffffffffffffffffffffffffff19161480610d945750610d93826133b3565b5b9050919050565b60055f9054906101000a900473ffffffffffffffffffffffffffffffffffffffff1681565b60075481565b610dce61341c565b5f60135f8481526020019081526020015f2090505f816008015403610e1f576040517f8ad4ea1800000000000000000000000000000000000000000000000000000000815260040160405180910390fd5b80600901544210610e5c576040517f181ff59a00000000000000000000000000000000000000000000000000000000815260040160405180910390fd5b80600d015f9054906101000a900460ff1615610ea4576040517f181ff59a00000000000000000000000000000000000000000000000000000000815260040160405180910390fd5b80600e015f3373ffffffffffffffffffffffffffffffffffffffff1673ffffffffffffffffffffffffffffffffffffffff1681526020019081526020015f205f015f9054906101000a900460ff1615610f29576040517f7c9a1cf900000000000000000000000000000000000000000000000000000000815260040160405180910390fd5b806001015f015f9054906101000a900473ffffffffffffffffffffffffffffffffffffffff1673ffffffffffffffffffffffffffffffffffffffff163373ffffffffffffffffffffffffffffffffffffffff1603610fb3576040517f1c3f075300000000000000000000000000000000000000000000000000000000815260040160405180910390fd5b5f60145f3373ffffffffffffffffffffffffffffffffffffffff1673ffffffffffffffffffffffffffffffffffffffff1681526020019081526020015f2090506110038160010154600f54613469565b611039576040517f1efc572600000000000000000000000000000000000000000000000000000000815260040160405180910390fd5b5f61107f826040518060a00160405290815f8201548152602001600182015481526020016002820154815260200160038201548152602001600482015481525050613476565b90506006548110156110bd576040517ff1bc94d200000000000000000000000000000000000000000000000000000000815260040160405180910390fd5b5f6110cc8284600101546134a6565b90505f8113611107576040517fcabeb65500000000000000000000000000000000000000000000000000000000815260040160405180910390fd5b604051806080016040528060011515815260200186151581526020018281526020018381525084600e015f3373ffffffffffffffffffffffffffffffffffffffff1673ffffffffffffffffffffffffffffffffffffffff1681526020019081526020015f205f820151815f015f6101000a81548160ff0219169083151502179055506020820151815f0160016101000a81548160ff021916908315150217905550604082015181600101556060820151816002015590505083600f0133908060018154018082558091505060019003905f5260205f20015f9091909190916101000a81548173ffffffffffffffffffffffffffffffffffffffff021916908373ffffffffffffffffffffffffffffffffffffffff1602179055505f819050851561124a578085600a015f82825461123e9190614dc7565b92505081905550611265565b8085600b015f82825461125d9190614dc7565b925050819055505b8085600c015f8282546112789190614dc7565b92505081905550600654846004015f8282546112949190614dc7565b925050819055506001846002015f8282546112af9190614dc7565b925050819055503373ffffffffffffffffffffffffffffffffffffffff16877fcbdf6214089cba887ecbf35a0b6a734589959c9763342c756bb2a80ca2bc9f6e88846040516112ff929190614dfa565b60405180910390a350505050506113146134ce565b5050565b60085481565b5f5f5f5f5f60135f8881526020019081526020015f20600e015f8773ffffffffffffffffffffffffffffffffffffffff1673ffffffffffffffffffffffffffffffffffffffff1681526020019081526020015f209050805f015f9054906101000a900460ff16815f0160019054906101000a900460ff168260010154836002015494509450945094505092959194509250565b7f896f2fe212e7ed9631b6dfe8fc24cd35f4d47b9e9a854d5b0eb08db6295a922c6113db816134d7565b6103e8821115611417576040517f721dbfea00000000000000000000000000000000000000000000000000000000815260040160405180910390fd5b600b548210611452576040517f721dbfea00000000000000000000000000000000000000000000000000000000815260040160405180910390fd5b81600e819055507f09afbd3db7e424891a64a86dadd810d1ecc861fa5c7668f55640f65e4f638c0182604051611488919061471c565b60405180910390a15050565b60095481565b601581815481106114a9575f80fd5b905f5260205f20015f915090505481565b7f71840dc4906352362b0cdaf79870196c8e42acafade72d5d5a6d59291253ceb16114e4816134d7565b816006819055507ff4045d7dd317de89564c3f12c35961242ed2a4dce3ae4e7a75847ffa04bb08348260405161151a919061471c565b60405180910390a15050565b5f60015f8381526020019081526020015f20600101549050919050565b60115481565b5f60135f8381526020019081526020015f20600f01805490509050919050565b7f896f2fe212e7ed9631b6dfe8fc24cd35f4d47b9e9a854d5b0eb08db6295a922c611593816134d7565b816009819055505050565b6115a661341c565b5f81036115df576040517f2c5211c600000000000000000000000000000000000000000000000000000000815260040160405180910390fd5b5f60145f3373ffffffffffffffffffffffffffffffffffffffff1673ffffffffffffffffffffffffffffffffffffffff1681526020019081526020015f2090505f611665826040518060a00160405290815f8201548152602001600182015481526020016002820154815260200160038201548152602001600482015481525050613476565b9050808311156116a1576040517ff1bc94d200000000000000000000000000000000000000000000000000000000815260040160405180910390fd5b5f826004015411156116df576040517f69ee2d2600000000000000000000000000000000000000000000000000000000815260040160405180910390fd5b82825f015f8282546116f19190614e21565b925050819055507f000000000000000000000000000000000000000000000000000000000000000073ffffffffffffffffffffffffffffffffffffffff1663a9059cbb33856040518363ffffffff1660e01b8152600401611753929190614e54565b6020604051808303815f875af115801561176f573d5f5f3e3d5ffd5b505050506040513d601f19601f820116820180604052508101906117939190614e8f565b503373ffffffffffffffffffffffffffffffffffffffff167f0f5bb82176feb1b5e747e28471aa92156a04d9f3ab9f45f28e2d704232b93f75846040516117da919061471c565b60405180910390a250506117ec6134ce565b50565b6117f882611526565b611801816134d7565b61180b83836134eb565b505050565b6118186135c5565b73ffffffffffffffffffffffffffffffffffffffff168173ffffffffffffffffffffffffffffffffffffffff1614611885576040517f08c379a000000000000000000000000000000000000000000000000000000000815260040161187c90614f3a565b60405180910390fd5b61188f82826135cc565b5050565b600a5481565b6118a161341c565b5f60135f8381526020019081526020015f2090505f8160080154036118f2576040517f8ad4ea1800000000000000000000000000000000000000000000000000000000815260040160405180910390fd5b8060090154421015611930576040517f3483eb6300000000000000000000000000000000000000000000000000000000815260040160405180910390fd5b80600d015f9054906101000a900460ff1615611978576040517f181ff59a00000000000000000000000000000000000000000000000000000000815260040160405180910390fd5b600181600d015f6101000a81548160ff0219169083151502179055505f60105482600f0180549050101590505f60115483600c0154101590505f836001015f015f9054906101000a900473ffffffffffffffffffffffffffffffffffffffff1690505f60175f8373ffffffffffffffffffffffffffffffffffffffff1673ffffffffffffffffffffffffffffffffffffffff1681526020019081526020015f209050831580611a25575082155b15611be457600185600d0160026101000a81548160ff021916908315150217905550611a50866136a7565b5f5f90505b85600f0180549050811015611b10575f86600f018281548110611a7b57611a7a614f58565b5b905f5260205f20015f9054906101000a900473ffffffffffffffffffffffffffffffffffffffff1690505f60145f8373ffffffffffffffffffffffffffffffffffffffff1673ffffffffffffffffffffffffffffffffffffffff1681526020019081526020015f209050600654816004015f828254611afa9190614e21565b9250508190555050508080600101915050611a55565b50846001015f015f9054906101000a900473ffffffffffffffffffffffffffffffffffffffff1673ffffffffffffffffffffffffffffffffffffffff16867f6b7d570687f920fe385e7f556f2c05f213b815a17239590a20b8bf68b30736ac87600f018054905088600c0154604051611b8a929190614f85565b60405180910390a36001815f015f6101000a81548160ff0219169083151502179055505f815f0160016101000a81548160ff0219169083151502179055508581600101819055504281600201819055505050505050611e6d565b5f85600b015486600a01541190508086600d0160016101000a81548160ff0219169083151502179055506001825f015f6101000a81548160ff02191690831515021790555080825f0160016101000a81548160ff021916908315150217905550868260010181905550428260020181905550868373ffffffffffffffffffffffffffffffffffffffff167f4be715fd4922ea02a63ef665e8a0155bb37b3d68f6a31e6c18a4b0e9dd2fc4768342604051611c9f929190614dfa565b60405180910390a3611cb18782613765565b611cba876136a7565b856001015f015f9054906101000a900473ffffffffffffffffffffffffffffffffffffffff1673ffffffffffffffffffffffffffffffffffffffff16877ff169c7c922e0594dfec2ea81d8e41fd340e9112c618843014a60b88c37c489758389600a01548a600b0154604051611d3293929190614fac565b60405180910390a35f611d49600d54600e546139db565b90505f81118015611d5c5750600d548111155b15611e655780600d5f828254611d729190614e21565b925050819055507f000000000000000000000000000000000000000000000000000000000000000073ffffffffffffffffffffffffffffffffffffffff1663a9059cbb33836040518363ffffffff1660e01b8152600401611dd4929190614e54565b6020604051808303815f875af1158015611df0573d5f5f3e3d5ffd5b505050506040513d601f19601f82011682018060405250810190611e149190614e8f565b503373ffffffffffffffffffffffffffffffffffffffff16887f5f2349b82ffb38b0fab5593e18bb36d742353b6c81a48810385beb2f092632f083604051611e5c919061471c565b60405180910390a35b505050505050505b611e756134ce565b50565b5f601580549050905090565b7f71840dc4906352362b0cdaf79870196c8e42acafade72d5d5a6d59291253ceb1611eae816134d7565b81600f819055507fc5afde4dcae70055d5fc1b690dee99145bd6ab8e964c86799e222ef3bda2b7b982604051611ee49190614d05565b60405180910390a15050565b7f71840dc4906352362b0cdaf79870196c8e42acafade72d5d5a6d59291253ceb1611f1a816134d7565b816007819055507f8bfdfd03860750d17bbdb52e09d863153c6b782f8b752a66ada6e614c34f4ce382604051611f50919061471c565b60405180910390a15050565b600d5481565b600c5f9054906101000a900473ffffffffffffffffffffffffffffffffffffffff1681565b7f71840dc4906352362b0cdaf79870196c8e42acafade72d5d5a6d59291253ceb1611fb1816134d7565b5f8203611fea576040517f632bb32f00000000000000000000000000000000000000000000000000000000815260040160405180910390fd5b816011819055507f796c8cdf486a186f4170eaa7aba6047954ab71146a47649e435fedab259f32f082604051612020919061471c565b60405180910390a15050565b7f000000000000000000000000000000000000000000000000000000000000000081565b5f60025f9054906101000a900473ffffffffffffffffffffffffffffffffffffffff1673ffffffffffffffffffffffffffffffffffffffff16639b6c56ec306040518263ffffffff1660e01b81526004016120ab91906146eb565b602060405180830381865afa1580156120c6573d5f5f3e3d5ffd5b505050506040513d601f19601f820116820180604052508101906120ea9190614ff5565b905061211760025f9054906101000a900473ffffffffffffffffffffffffffffffffffffffff1682613a16565b50565b60105481565b6014602052805f5260405f205f91509050805f0154908060010154908060020154908060030154908060040154905085565b5f60015f8481526020019081526020015f205f015f8373ffffffffffffffffffffffffffffffffffffffff1673ffffffffffffffffffffffffffffffffffffffff1681526020019081526020015f205f9054906101000a900460ff16905092915050565b6017602052805f5260405f205f91509050805f015f9054906101000a900460ff1690805f0160019054906101000a900460ff16908060010154908060020154908060030154905085565b5f5f1b81565b6013602052805f5260405f205f91509050805f015490806001016040518060e00160405290815f82015f9054906101000a900473ffffffffffffffffffffffffffffffffffffffff1673ffffffffffffffffffffffffffffffffffffffff1673ffffffffffffffffffffffffffffffffffffffff16815260200160018201548152602001600282015f9054906101000a900473ffffffffffffffffffffffffffffffffffffffff1673ffffffffffffffffffffffffffffffffffffffff1673ffffffffffffffffffffffffffffffffffffffff1681526020016003820154815260200160048201548152602001600582015481526020016006820154815250509080600801549080600901549080600a01549080600b01549080600c01549080600d015f9054906101000a900460ff169080600d0160019054906101000a900460ff169080600d0160029054906101000a900460ff1690508a565b61236961341c565b5f81036123a2576040517f2c5211c600000000000000000000000000000000000000000000000000000000815260040160405180910390fd5b7f000000000000000000000000000000000000000000000000000000000000000073ffffffffffffffffffffffffffffffffffffffff166323b872dd3330846040518463ffffffff1660e01b81526004016123ff93929190615020565b6020604051808303815f875af115801561241b573d5f5f3e3d5ffd5b505050506040513d601f19601f8201168201806040525081019061243f9190614e8f565b508060145f3373ffffffffffffffffffffffffffffffffffffffff1673ffffffffffffffffffffffffffffffffffffffff1681526020019081526020015f205f015f82825461248e9190614dc7565b925050819055503373ffffffffffffffffffffffffffffffffffffffff167f9e71bc8eea02a63969f509818f2dafb9254532904319f9dbda79b67bd34a5f3d826040516124db919061471c565b60405180910390a26124eb6134ce565b50565b5f60035f3373ffffffffffffffffffffffffffffffffffffffff1673ffffffffffffffffffffffffffffffffffffffff1681526020019081526020015f205f9054906101000a900460ff1615801561256d575061256b7f71840dc4906352362b0cdaf79870196c8e42acafade72d5d5a6d59291253ceb133612152565b155b156125a4576040517ff5c6c81a00000000000000000000000000000000000000000000000000000000815260040160405180910390fd5b5f73ffffffffffffffffffffffffffffffffffffffff168873ffffffffffffffffffffffffffffffffffffffff1603612609576040517fe6c4247b00000000000000000000000000000000000000000000000000000000815260040160405180910390fd5b5f60175f8a73ffffffffffffffffffffffffffffffffffffffff1673ffffffffffffffffffffffffffffffffffffffff1681526020019081526020015f2090505f815f015f9054906101000a900460ff1690505f825f0160019054906101000a900460ff16905081801561267a5750805b1561275f575f600184600301546126919190614dc7565b905080846003018190555060165f8d73ffffffffffffffffffffffffffffffffffffffff1673ffffffffffffffffffffffffffffffffffffffff1681526020019081526020015f205f908060018154018082558091505060019003905f5260205f20015f909190919091505585818d73ffffffffffffffffffffffffffffffffffffffff167f74b421fe779933dd24e3fbcf1f54816e4f3875cc36b2b87c67c9887ce4fd21ab87600101548b60405161274b929190614f85565b60405180910390a45f9450505050506129e6565b60125f815461276d90615055565b91905081905593505f60135f8681526020019081526020015f20905084815f01819055506040518060e001604052808d73ffffffffffffffffffffffffffffffffffffffff1681526020018c81526020018b73ffffffffffffffffffffffffffffffffffffffff1681526020018a815260200189815260200188815260200187815250816001015f820151815f015f6101000a81548173ffffffffffffffffffffffffffffffffffffffff021916908373ffffffffffffffffffffffffffffffffffffffff160217905550602082015181600101556040820151816002015f6101000a81548173ffffffffffffffffffffffffffffffffffffffff021916908373ffffffffffffffffffffffffffffffffffffffff160217905550606082015181600301556080820151816004015560a0820151816005015560c08201518160060155905050428160080181905550600754426128ca9190614dc7565b81600901819055505f81600d015f6101000a81548160ff021916908315150217905550601585908060018154018082558091505060019003905f5260205f20015f909190919091505560165f8d73ffffffffffffffffffffffffffffffffffffffff1673ffffffffffffffffffffffffffffffffffffffff1681526020019081526020015f2085908060018154018082558091505060019003905f5260205f20015f9091909190915055836003015f81548092919061298890615055565b9190505550858c73ffffffffffffffffffffffffffffffffffffffff16867f1997388c58ba32fe84137f08ede16d26588251de47ebcd9e8ff0a6e55ce330f884600901546040516129d9919061471c565b60405180910390a4505050505b979650505050505050565b7f896f2fe212e7ed9631b6dfe8fc24cd35f4d47b9e9a854d5b0eb08db6295a922c612a1b816134d7565b81600a819055505050565b600f5481565b7f896f2fe212e7ed9631b6dfe8fc24cd35f4d47b9e9a854d5b0eb08db6295a922c81565b7f71840dc4906352362b0cdaf79870196c8e42acafade72d5d5a6d59291253ceb1612a7a816134d7565b5f8203612ab3576040517f632bb32f00000000000000000000000000000000000000000000000000000000815260040160405180910390fd5b816010819055507f27369ec439f2c1f5f065820c742a1381b8dfc864a8b0dfcef666de030c224f3a82604051612ae9919061471c565b60405180910390a15050565b60035f3373ffffffffffffffffffffffffffffffffffffffff1673ffffffffffffffffffffffffffffffffffffffff1681526020019081526020015f205f9054906101000a900460ff16612b7e576040517f08c379a0000000000000000000000000000000000000000000000000000000008152600401612b75906150e6565b60405180910390fd5b612b883382613a16565b50565b7f71840dc4906352362b0cdaf79870196c8e42acafade72d5d5a6d59291253ceb1612bb5816134d7565b5f73ffffffffffffffffffffffffffffffffffffffff168273ffffffffffffffffffffffffffffffffffffffff1603612c1a576040517fe6c4247b00000000000000000000000000000000000000000000000000000000815260040160405180910390fd5b8160055f6101000a81548173ffffffffffffffffffffffffffffffffffffffff021916908373ffffffffffffffffffffffffffffffffffffffff1602179055508173ffffffffffffffffffffffffffffffffffffffff167f32767834958331057fab21ef35ca5bb44166b63e9acb2f6de0e2a8486946e0e160405160405180910390a25050565b7fe1dcbdb91df27212a29bc27177c840cf2f819ecf2187432e1fac86c2dd5dfca9612ccb816134d7565b6103e8821115612d07576040517f721dbfea00000000000000000000000000000000000000000000000000000000815260040160405180910390fd5b600e548211612d42576040517f721dbfea00000000000000000000000000000000000000000000000000000000815260040160405180910390fd5b81600b819055507f542e3d0b9eb0b84e2fc82587dc9969b936567d2d2f433b4158c83faacf2cbca182604051612d78919061471c565b60405180910390a15050565b7f71840dc4906352362b0cdaf79870196c8e42acafade72d5d5a6d59291253ceb1612dae816134d7565b5f60175f8473ffffffffffffffffffffffffffffffffffffffff1673ffffffffffffffffffffffffffffffffffffffff1681526020019081526020015f209050805f015f9054906101000a900460ff16612e34576040517f67cd57f100000000000000000000000000000000000000000000000000000000815260040160405180910390fd5b5f815f015f6101000a81548160ff0219169083151502179055505f815f0160016101000a81548160ff0219169083151502179055503373ffffffffffffffffffffffffffffffffffffffff168373ffffffffffffffffffffffffffffffffffffffff167f1cc367ed7b2155ea566d1affe0c066507b86e76918d3095ba9e24190dbf1851260405160405180910390a3505050565b7fe1dcbdb91df27212a29bc27177c840cf2f819ecf2187432e1fac86c2dd5dfca981565b6016602052815f5260405f208181548110612f05575f80fd5b905f5260205f20015f91509150505481565b612f2082611526565b612f29816134d7565b612f3383836135cc565b505050565b600e5481565b7f71840dc4906352362b0cdaf79870196c8e42acafade72d5d5a6d59291253ceb1612f68816134d7565b611388821115612fa4576040517f721dbfea00000000000000000000000000000000000000000000000000000000815260040160405180910390fd5b816008819055507f7c1ff17641db1a7a011585bdcc8a1c6ef26a5f9621c2d296135118ac9c6c588c82604051612fda919061471c565b60405180910390a15050565b7fe1dcbdb91df27212a29bc27177c840cf2f819ecf2187432e1fac86c2dd5dfca9613010816134d7565b5f8203613049576040517f2c5211c600000000000000000000000000000000000000000000000000000000815260040160405180910390fd5b600d54821115613085576040517f2c5211c600000000000000000000000000000000000000000000000000000000815260040160405180910390fd5b81600d5f8282546130969190614e21565b925050819055507f000000000000000000000000000000000000000000000000000000000000000073ffffffffffffffffffffffffffffffffffffffff1663a9059cbb600c5f9054906101000a900473ffffffffffffffffffffffffffffffffffffffff16846040518363ffffffff1660e01b8152600401613119929190614e54565b6020604051808303815f875af1158015613135573d5f5f3e3d5ffd5b505050506040513d601f19601f820116820180604052508101906131599190614e8f565b50600c5f9054906101000a900473ffffffffffffffffffffffffffffffffffffffff1673ffffffffffffffffffffffffffffffffffffffff167f06c5efeff5c320943d265dc4e5f1af95ad523555ce0c1957e367dda5514572df836040516131c1919061471c565b60405180910390a25050565b60065481565b5f60135f8481526020019081526020015f20600f0182815481106131fa576131f9614f58565b5b905f5260205f20015f9054906101000a900473ffffffffffffffffffffffffffffffffffffffff16905092915050565b7fe1dcbdb91df27212a29bc27177c840cf2f819ecf2187432e1fac86c2dd5dfca9613254816134d7565b5f73ffffffffffffffffffffffffffffffffffffffff168273ffffffffffffffffffffffffffffffffffffffff16036132b9576040517f14bcf5c800000000000000000000000000000000000000000000000000000000815260040160405180910390fd5b81600c5f6101000a81548173ffffffffffffffffffffffffffffffffffffffff021916908373ffffffffffffffffffffffffffffffffffffffff1602179055508173ffffffffffffffffffffffffffffffffffffffff167f7dae230f18360d76a040c81f050aa14eb9d6dc7901b20fc5d855e2a20fe814d160405160405180910390a25050565b5f60165f8373ffffffffffffffffffffffffffffffffffffffff1673ffffffffffffffffffffffffffffffffffffffff1681526020019081526020015f20805490509050919050565b7f71840dc4906352362b0cdaf79870196c8e42acafade72d5d5a6d59291253ceb181565b600b5481565b5f7f01ffc9a7000000000000000000000000000000000000000000000000000000007bffffffffffffffffffffffffffffffffffffffffffffffffffffffff1916827bffffffffffffffffffffffffffffffffffffffffffffffffffffffff1916149050919050565b60025f5403613460576040517f08c379a00000000000000000000000000000000000000000000000000000000081526004016134579061514e565b60405180910390fd5b60025f81905550565b5f81831215905092915050565b5f8160800151825f01511161348b575f61349f565b8160800151825f015161349e9190614e21565b5b9050919050565b5f5f8390505f6134b68585613b5d565b905080826134c4919061516c565b9250505092915050565b60015f81905550565b6134e8816134e36135c5565b613b89565b50565b6134f58282612152565b6135c1576001805f8481526020019081526020015f205f015f8373ffffffffffffffffffffffffffffffffffffffff1673ffffffffffffffffffffffffffffffffffffffff1681526020019081526020015f205f6101000a81548160ff0219169083151502179055506135666135c5565b73ffffffffffffffffffffffffffffffffffffffff168173ffffffffffffffffffffffffffffffffffffffff16837f2f8788117e7eff1d82e926ec794901d17c78024a50270940304540a733656f0d60405160405180910390a45b5050565b5f33905090565b6135d68282612152565b156136a3575f60015f8481526020019081526020015f205f015f8373ffffffffffffffffffffffffffffffffffffffff1673ffffffffffffffffffffffffffffffffffffffff1681526020019081526020015f205f6101000a81548160ff0219169083151502179055506136486135c5565b73ffffffffffffffffffffffffffffffffffffffff168173ffffffffffffffffffffffffffffffffffffffff16837ff6391f5c32d9c69d2a47ea670b442974b53935d1edc7fd64eb21e047a839171b60405160405180910390a45b5050565b5f5f90505b6015805490508110156137615781601582815481106136ce576136cd614f58565b5b905f5260205f2001540361375457601560016015805490506136f09190614e21565b8154811061370157613700614f58565b5b905f5260205f2001546015828154811061371e5761371d614f58565b5b905f5260205f200181905550601580548061373c5761373b6151ad565b5b600190038181905f5260205f20015f90559055613761565b80806001019150506136ac565b5050565b5f60135f8481526020019081526020015f2090505f61381682600f018054806020026020016040519081016040528092919081815260200182805480156137fe57602002820191905f5260205f20905b815f9054906101000a900473ffffffffffffffffffffffffffffffffffffffff1673ffffffffffffffffffffffffffffffffffffffff16815260200190600101908083116137b5575b505050505083600e0160148688600854600654613c0d565b90505f5f613829835f0151600b54613e3d565b915091505f82111561389c5781600d5f8282546138469190614dc7565b925050819055503073ffffffffffffffffffffffffffffffffffffffff167f06c5efeff5c320943d265dc4e5f1af95ad523555ce0c1957e367dda5514572df83604051613893919061471c565b60405180910390a25b61393484600f0180548060200260200160405190810160405280929190818152602001828054801561392057602002820191905f5260205f20905b815f9054906101000a900473ffffffffffffffffffffffffffffffffffffffff1673ffffffffffffffffffffffffffffffffffffffff16815260200190600101908083116138d7575b505050505085600e01601488600a54613e8c565b6139d384600f018054806020026020016040519081016040528092919081815260200182805480156139b857602002820191905f5260205f20905b815f9054906101000a900473ffffffffffffffffffffffffffffffffffffffff1673ffffffffffffffffffffffffffffffffffffffff168152602001906001019080831161396f575b505050505085600e016014888a600954878a6020015161402a565b505050505050565b5f5f8314806139e957505f82145b156139f6575f9050613a10565b613a0d826127108561427b9092919063ffffffff16565b90505b92915050565b80471015613a59576040517f08c379a0000000000000000000000000000000000000000000000000000000008152600401613a5090615224565b60405180910390fd5b5f811115613b59575f8273ffffffffffffffffffffffffffffffffffffffff16825f67ffffffffffffffff811115613a9457613a93615242565b5b6040519080825280601f01601f191660200182016040528015613ac65781602001600182028036833780820191505090505b50604051613ad491906152c1565b5f6040518083038185875af1925050503d805f8114613b0e576040519150601f19603f3d011682016040523d82523d5f602084013e613b13565b606091505b5050905080613b57576040517f08c379a0000000000000000000000000000000000000000000000000000000008152600401613b4e90615321565b60405180910390fd5b505b5050565b5f5f8212613b7657613b6f83836142bc565b9050613b83565b613b8083836142dc565b90505b92915050565b613b938282612152565b613c0957613ba08161433d565b613bad835f1c602061436a565b604051602001613bbe929190615417565b6040516020818303038152906040526040517f08c379a0000000000000000000000000000000000000000000000000000000008152600401613c009190615498565b60405180910390fd5b5050565b613c156145d1565b5f815f0181815250505f8160200181815250505f5f90505b8851811015613e31575f898281518110613c4a57613c49614f58565b5b602002602001015190505f895f8373ffffffffffffffffffffffffffffffffffffffff1673ffffffffffffffffffffffffffffffffffffffff1681526020019081526020015f206040518060800160405290815f82015f9054906101000a900460ff161515151581526020015f820160019054906101000a900460ff161515151581526020016001820154815260200160028201548152505090505f895f8473ffffffffffffffffffffffffffffffffffffffff1673ffffffffffffffffffffffffffffffffffffffff1681526020019081526020015f20905085816004015410613d4c57858160040154613d3f9190614e21565b8160040181905550613d56565b5f81600401819055505b5f891515836020015115151490508015613d8c57826040015186602001818151613d809190614dc7565b91508181525050613e20565b5f613d9f84606001518a855f015461459f565b905080875f01818151613db29190614dc7565b9150818152505080835f0154613dc89190614e21565b835f0181905550898573ffffffffffffffffffffffffffffffffffffffff167fcf40cadcd86c14cb7e696a86578255719f67bc54bf991d45d267ee6e01467c1983604051613e16919061471c565b60405180910390a3505b505050508080600101915050613c2d565b50979650505050505050565b5f5f5f84118015613e4d57505f83115b15613e7e57613e69836127108661427b9092919063ffffffff16565b91508184613e779190614e21565b9050613e85565b5f91508390505b9250929050565b5f5f90505b8551811015614022575f868281518110613eae57613ead614f58565b5b602002602001015190505f865f8373ffffffffffffffffffffffffffffffffffffffff1673ffffffffffffffffffffffffffffffffffffffff1681526020019081526020015f206040518060800160405290815f82015f9054906101000a900460ff161515151581526020015f820160019054906101000a900460ff161515151581526020016001820154815260200160028201548152505090505f865f8473ffffffffffffffffffffffffffffffffffffffff1673ffffffffffffffffffffffffffffffffffffffff1681526020019081526020015f2090505f861515836020015115151490508061401157858260010154613fab91906154b8565b82600101819055508373ffffffffffffffffffffffffffffffffffffffff167fd7f7e46871cb590499467d7afe297290c8c4824d3abb82285225a815eec5f2ec87613ff5906154f8565b846001015460405161400892919061553e565b60405180910390a25b505050508080600101915050613e91565b505050505050565b5f5f90505b8851811015614270575f89828151811061404c5761404b614f58565b5b602002602001015190505f895f8373ffffffffffffffffffffffffffffffffffffffff1673ffffffffffffffffffffffffffffffffffffffff1681526020019081526020015f206040518060800160405290815f82015f9054906101000a900460ff161515151581526020015f820160019054906101000a900460ff161515151581526020016001820154815260200160028201548152505090505f895f8473ffffffffffffffffffffffffffffffffffffffff1673ffffffffffffffffffffffffffffffffffffffff1681526020019081526020015f2090505f89151583602001511515149050801561425f5787826001015461414a919061516c565b8260010181905550600182600301546141639190614dc7565b82600301819055508373ffffffffffffffffffffffffffffffffffffffff167fd7f7e46871cb590499467d7afe297290c8c4824d3abb82285225a815eec5f2ec8984600101546040516141b792919061553e565b60405180910390a25f871180156141cd57505f86115b1561425e575f6141ec8460400151888a61427b9092919063ffffffff16565b90505f81111561425c5780835f01546142059190614dc7565b835f0181905550898573ffffffffffffffffffffffffffffffffffffffff167f03e41697c2451ab605a6d3a7cc03220fe8bc49f9b662c1af6db8a9f872d81a6683604051614253919061471c565b60405180910390a35b505b5b50505050808060010191505061402f565b505050505050505050565b5f827fffffffffffffffffffffffffffffffffffffffffffffffffffffffffffffffff04841183021582026142ae575f5ffd5b818385020490509392505050565b5f6142d4826127108561427b9092919063ffffffff16565b905092915050565b5f5f826142e8906154f8565b90505f61271082116143055781826143009190615565565b61430b565b6305f5e1005b90505f61432682620186a08861427b9092919063ffffffff16565b905080614332906154f8565b935050505092915050565b60606143638273ffffffffffffffffffffffffffffffffffffffff16601460ff1661436a565b9050919050565b60605f600283600261437c9190615565565b6143869190614dc7565b67ffffffffffffffff81111561439f5761439e615242565b5b6040519080825280601f01601f1916602001820160405280156143d15781602001600182028036833780820191505090505b5090507f3000000000000000000000000000000000000000000000000000000000000000815f8151811061440857614407614f58565b5b60200101907effffffffffffffffffffffffffffffffffffffffffffffffffffffffffffff191690815f1a9053507f78000000000000000000000000000000000000000000000000000000000000008160018151811061446b5761446a614f58565b5b60200101907effffffffffffffffffffffffffffffffffffffffffffffffffffffffffffff191690815f1a9053505f60018460026144a99190615565565b6144b39190614dc7565b90505b6001811115614552577f3031323334353637383961626364656600000000000000000000000000000000600f8616601081106144f5576144f4614f58565b5b1a60f81b82828151811061450c5761450b614f58565b5b60200101907effffffffffffffffffffffffffffffffffffffffffffffffffffffffffffff191690815f1a905350600485901c94508061454b906155a6565b90506144b6565b505f8414614595576040517f08c379a000000000000000000000000000000000000000000000000000000000815260040161458c90615617565b60405180910390fd5b8091505092915050565b5f5f6145b8846127108761427b9092919063ffffffff16565b9050828111156145c6578290505b809150509392505050565b60405180608001604052805f81526020015f81526020015f81526020015f81525090565b5f5ffd5b5f7fffffffff0000000000000000000000000000000000000000000000000000000082169050919050565b61462d816145f9565b8114614637575f5ffd5b50565b5f8135905061464881614624565b92915050565b5f60208284031215614663576146626145f5565b5b5f6146708482850161463a565b91505092915050565b5f8115159050919050565b61468d81614679565b82525050565b5f6020820190506146a65f830184614684565b92915050565b5f73ffffffffffffffffffffffffffffffffffffffff82169050919050565b5f6146d5826146ac565b9050919050565b6146e5816146cb565b82525050565b5f6020820190506146fe5f8301846146dc565b92915050565b5f819050919050565b61471681614704565b82525050565b5f60208201905061472f5f83018461470d565b92915050565b61473e81614704565b8114614748575f5ffd5b50565b5f8135905061475981614735565b92915050565b61476881614679565b8114614772575f5ffd5b50565b5f813590506147838161475f565b92915050565b5f5f6040838503121561479f5761479e6145f5565b5b5f6147ac8582860161474b565b92505060206147bd85828601614775565b9150509250929050565b6147d0816146cb565b81146147da575f5ffd5b50565b5f813590506147eb816147c7565b92915050565b5f5f60408385031215614807576148066145f5565b5b5f6148148582860161474b565b9250506020614825858286016147dd565b9150509250929050565b5f6080820190506148425f830187614684565b61484f6020830186614684565b61485c604083018561470d565b614869606083018461470d565b95945050505050565b5f60208284031215614887576148866145f5565b5b5f6148948482850161474b565b91505092915050565b5f819050919050565b6148af8161489d565b81146148b9575f5ffd5b50565b5f813590506148ca816148a6565b92915050565b5f602082840312156148e5576148e46145f5565b5b5f6148f2848285016148bc565b91505092915050565b6149048161489d565b82525050565b5f60208201905061491d5f8301846148fb565b92915050565b5f5f60408385031215614939576149386145f5565b5b5f614946858286016148bc565b9250506020614957858286016147dd565b9150509250929050565b5f819050919050565b61497381614961565b811461497d575f5ffd5b50565b5f8135905061498e8161496a565b92915050565b5f602082840312156149a9576149a86145f5565b5b5f6149b684828501614980565b91505092915050565b5f819050919050565b5f6149e26149dd6149d8846146ac565b6149bf565b6146ac565b9050919050565b5f6149f3826149c8565b9050919050565b5f614a04826149e9565b9050919050565b614a14816149fa565b82525050565b5f602082019050614a2d5f830184614a0b565b92915050565b5f60208284031215614a4857614a476145f5565b5b5f614a55848285016147dd565b91505092915050565b614a6781614961565b82525050565b5f60a082019050614a805f83018861470d565b614a8d6020830187614a5e565b614a9a604083018661470d565b614aa7606083018561470d565b614ab4608083018461470d565b9695505050505050565b5f60a082019050614ad15f830188614684565b614ade6020830187614684565b614aeb604083018661470d565b614af8606083018561470d565b614b05608083018461470d565b9695505050505050565b614b18816146cb565b82525050565b614b2781614704565b82525050565b614b368161489d565b82525050565b60e082015f820151614b505f850182614b0f565b506020820151614b636020850182614b1e565b506040820151614b766040850182614b0f565b506060820151614b896060850182614b1e565b506080820151614b9c6080850182614b1e565b5060a0820151614baf60a0850182614b1e565b5060c0820151614bc260c0850182614b2d565b50505050565b5f61020082019050614bdc5f83018d61470d565b614be9602083018c614b3c565b614bf761010083018b61470d565b614c0561012083018a61470d565b614c1361014083018961470d565b614c2161016083018861470d565b614c2f61018083018761470d565b614c3d6101a0830186614684565b614c4b6101c0830185614684565b614c596101e0830184614684565b9b9a5050505050505050505050565b5f5f5f5f5f5f5f60e0888a031215614c8357614c826145f5565b5b5f614c908a828b016147dd565b9750506020614ca18a828b0161474b565b9650506040614cb28a828b016147dd565b9550506060614cc38a828b0161474b565b9450506080614cd48a828b0161474b565b93505060a0614ce58a828b0161474b565b92505060c0614cf68a828b016148bc565b91505092959891949750929550565b5f602082019050614d185f830184614a5e565b92915050565b5f5f60408385031215614d3457614d336145f5565b5b5f614d41858286016147dd565b9250506020614d528582860161474b565b9150509250929050565b5f5f60408385031215614d7257614d716145f5565b5b5f614d7f8582860161474b565b9250506020614d908582860161474b565b9150509250929050565b7f4e487b71000000000000000000000000000000000000000000000000000000005f52601160045260245ffd5b5f614dd182614704565b9150614ddc83614704565b9250828201905080821115614df457614df3614d9a565b5b92915050565b5f604082019050614e0d5f830185614684565b614e1a602083018461470d565b9392505050565b5f614e2b82614704565b9150614e3683614704565b9250828203905081811115614e4e57614e4d614d9a565b5b92915050565b5f604082019050614e675f8301856146dc565b614e74602083018461470d565b9392505050565b5f81519050614e898161475f565b92915050565b5f60208284031215614ea457614ea36145f5565b5b5f614eb184828501614e7b565b91505092915050565b5f82825260208201905092915050565b7f416363657373436f6e74726f6c3a2063616e206f6e6c792072656e6f756e63655f8201527f20726f6c657320666f722073656c660000000000000000000000000000000000602082015250565b5f614f24602f83614eba565b9150614f2f82614eca565b604082019050919050565b5f6020820190508181035f830152614f5181614f18565b9050919050565b7f4e487b71000000000000000000000000000000000000000000000000000000005f52603260045260245ffd5b5f604082019050614f985f83018561470d565b614fa5602083018461470d565b9392505050565b5f606082019050614fbf5f830186614684565b614fcc602083018561470d565b614fd9604083018461470d565b949350505050565b5f81519050614fef81614735565b92915050565b5f6020828403121561500a576150096145f5565b5b5f61501784828501614fe1565b91505092915050565b5f6060820190506150335f8301866146dc565b61504060208301856146dc565b61504d604083018461470d565b949350505050565b5f61505f82614704565b91507fffffffffffffffffffffffffffffffffffffffffffffffffffffffffffffffff820361509157615090614d9a565b5b600182019050919050565b7f417574686f72697a65642073656e646572206f6e6c79000000000000000000005f82015250565b5f6150d0601683614eba565b91506150db8261509c565b602082019050919050565b5f6020820190508181035f8301526150fd816150c4565b9050919050565b7f5265656e7472616e637947756172643a207265656e7472616e742063616c6c005f82015250565b5f615138601f83614eba565b915061514382615104565b602082019050919050565b5f6020820190508181035f8301526151658161512c565b9050919050565b5f61517682614961565b915061518183614961565b92508282019050828112155f8312168382125f8412151617156151a7576151a6614d9a565b5b92915050565b7f4e487b71000000000000000000000000000000000000000000000000000000005f52603160045260245ffd5b7f496e73756666696369656e742066756e647300000000000000000000000000005f82015250565b5f61520e601283614eba565b9150615219826151da565b602082019050919050565b5f6020820190508181035f83015261523b81615202565b9050919050565b7f4e487b71000000000000000000000000000000000000000000000000000000005f52604160045260245ffd5b5f81519050919050565b5f81905092915050565b8281835e5f83830152505050565b5f61529b8261526f565b6152a58185615279565b93506152b5818560208601615283565b80840191505092915050565b5f6152cc8284615291565b915081905092915050565b7f5472616e73666572206661696c656400000000000000000000000000000000005f82015250565b5f61530b600f83614eba565b9150615316826152d7565b602082019050919050565b5f6020820190508181035f830152615338816152ff565b9050919050565b5f81905092915050565b7f416363657373436f6e74726f6c3a206163636f756e74200000000000000000005f82015250565b5f61537d60178361533f565b915061538882615349565b601782019050919050565b5f81519050919050565b5f6153a782615393565b6153b1818561533f565b93506153c1818560208601615283565b80840191505092915050565b7f206973206d697373696e6720726f6c65200000000000000000000000000000005f82015250565b5f61540160118361533f565b915061540c826153cd565b601182019050919050565b5f61542182615371565b915061542d828561539d565b9150615438826153f5565b9150615444828461539d565b91508190509392505050565b5f601f19601f8301169050919050565b5f61546a82615393565b6154748185614eba565b9350615484818560208601615283565b61548d81615450565b840191505092915050565b5f6020820190508181035f8301526154b08184615460565b905092915050565b5f6154c282614961565b91506154cd83614961565b925082820390508181125f8412168282135f8512151617156154f2576154f1614d9a565b5b92915050565b5f61550282614961565b91507f8000000000000000000000000000000000000000000000000000000000000000820361553457615533614d9a565b5b815f039050919050565b5f6040820190506155515f830185614a5e565b61555e6020830184614a5e565b9392505050565b5f61556f82614704565b915061557a83614704565b925082820261558881614704565b9150828204841483151761559f5761559e614d9a565b5b5092915050565b5f6155b082614704565b91505f82036155c2576155c1614d9a565b5b600182039050919050565b7f537472696e67733a20686578206c656e67746820696e73756666696369656e745f82015250565b5f615601602083614eba565b915061560c826155cd565b602082019050919050565b5f6020820190508181035f83015261562e816155f5565b905091905056fea26469706673582212207e598afd3eb720ff996f5ff05fe0e5b0ef866cf36faa242380cd0d835788b38864736f6c634300081e0033","linkReferences":{}},"methodIdentifiers":{"DEFAULT_ADMIN_ROLE()":"a217fddf","GOVERNANCE_ROLE()":"f36c8f5c","PARAMETER_ADMIN_ROLE()":"b626de1b","TREASURY_ROLE()":"d11a57ec","activeVotingCount()":"4994a222","activeVotingIds(uint256)":"21788047","addressVerdicts(address)":"99a21956","addressVotingHistory(address,uint256)":"d40a8fab","addressVotingHistoryLength(address)":"f2cb42c7","callbackAuthorizer()":"0d750559","castVote(uint256,bool)":"15373e3d","clearAddressVerdict(address)":"ca699dc8","coverDebt()":"7a90b990","finalizationFeePercentage()":"f5093ac8","finalizationRewardPercentage()":"def0de0d","finalizeVoting(uint256)":"49444831","getRoleAdmin(bytes32)":"248a9ca3","grantRole(bytes32,address)":"2f2ff15d","hasRole(bytes32,address)":"91d14854","karmaPenalty()":"41c7bfc8","karmaReward()":"1e9c7bd2","minimumKarmaToVote()":"b4d9bc00","minimumStake()":"ec5ffac2","minimumTotalVotingPower()":"24afe055","minimumVoters()":"84cf71db","pay(uint256)":"c290d691","penaltyPercentage()":"15908d51","renounceRole(bytes32,address)":"36568abe","revokeRole(bytes32,address)":"d547741f","setCallbackAuthorizer(address)":"c4893c97","setFinalizationFeePercentage(uint256)":"c7ffdde6","setFinalizationRewardPercentage(uint256)":"1d688bc1","setKarmaPenalty(uint256)":"aacc7b36","setKarmaReward(uint256)":"2dd5879c","setMinimumKarmaToVote(int256)":"55b7bb86","setMinimumStake(uint256)":"233e9903","setMinimumTotalVotingPower(uint256)":"72a09800","setMinimumVoters(uint256)":"b67f3c79","setPenaltyPercentage(uint256)":"e00e3ecd","setTreasury(address)":"f0f44260","setVotingDuration(uint256)":"5bcfadb5","stake(uint256)":"a694fc3a","stakers(address)":"9168ae72","stakingToken()":"72f702f3","supportsInterface(bytes4)":"01ffc9a7","tagSuspicious(address,uint256,address,uint256,uint256,uint256,bytes32)":"a8b25cb0","totalFeesCollected()":"60c6d8ae","transferFeesToTreasury(uint256)":"e13050e7","treasury()":"61d027b3","unstake(uint256)":"2e17de78","voteInfo(uint256,address)":"18f3e763","votingDuration()":"132002fc","votingVoterAt(uint256,uint256)":"efaa6424","votingVotersLength(uint256)":"2763d850","votings(uint256)":"a598d03c"},"id":87}